{
  "contractName": "KingOfTheHill",
  "abi": [
    {
      "anonymous": false,
      "inputs": [
        {
          "indexed": false,
          "internalType": "address",
          "name": "king",
          "type": "address"
        },
        {
          "indexed": false,
          "internalType": "uint256",
          "name": "fee",
          "type": "uint256"
        },
        {
          "indexed": false,
          "internalType": "uint256",
          "name": "sinceOf",
          "type": "uint256"
        }
      ],
      "name": "NewKing",
      "type": "event"
    },
    {
      "anonymous": false,
      "inputs": [
        {
          "indexed": true,
          "internalType": "address",
          "name": "previousOwner",
          "type": "address"
        },
        {
          "indexed": true,
          "internalType": "address",
          "name": "newOwner",
          "type": "address"
        }
      ],
      "name": "OwnershipTransferred",
      "type": "event"
    },
    {
      "inputs": [],
      "name": "isOwner",
      "outputs": [
        {
          "internalType": "bool",
          "name": "",
          "type": "bool"
        }
      ],
      "stateMutability": "view",
      "type": "function"
    },
    {
      "inputs": [],
      "name": "owner",
      "outputs": [
        {
          "internalType": "address",
          "name": "",
          "type": "address"
        }
      ],
      "stateMutability": "view",
      "type": "function"
    },
    {
      "inputs": [],
      "name": "renounceOwnership",
      "outputs": [],
      "stateMutability": "nonpayable",
      "type": "function"
    },
    {
      "inputs": [
        {
          "internalType": "address",
          "name": "newOwner",
          "type": "address"
        }
      ],
      "name": "transferOwnership",
      "outputs": [],
      "stateMutability": "nonpayable",
      "type": "function"
    },
    {
      "inputs": [],
      "name": "getKing",
      "outputs": [
        {
          "internalType": "address",
          "name": "",
          "type": "address"
        },
        {
          "internalType": "uint256",
          "name": "",
          "type": "uint256"
        },
        {
          "internalType": "uint256",
          "name": "",
          "type": "uint256"
        }
      ],
      "stateMutability": "view",
      "type": "function"
    },
    {
      "inputs": [],
      "name": "newKing",
      "outputs": [],
      "stateMutability": "payable",
      "type": "function"
    },
    {
      "inputs": [
        {
          "internalType": "uint256",
          "name": "_coef",
          "type": "uint256"
        }
      ],
      "name": "setCoef",
      "outputs": [],
      "stateMutability": "nonpayable",
      "type": "function"
    },
    {
      "inputs": [
        {
          "internalType": "uint256",
          "name": "_fee",
          "type": "uint256"
        }
      ],
      "name": "setOwnerFee",
      "outputs": [],
      "stateMutability": "nonpayable",
      "type": "function"
    },
    {
      "inputs": [
        {
          "internalType": "uint256",
          "name": "amount",
          "type": "uint256"
        }
      ],
      "name": "withdraw",
      "outputs": [
        {
          "internalType": "bool",
          "name": "",
          "type": "bool"
        }
      ],
      "stateMutability": "nonpayable",
      "type": "function"
    }
  ],
  "bytecode": "0x60806040527342d6bc6f05f8429e585314dfd8f0ba4a7dc230dd600160006101000a81548173ffffffffffffffffffffffffffffffffffffffff021916908373ffffffffffffffffffffffffffffffffffffffff160217905550600160009054906101000a900473ffffffffffffffffffffffffffffffffffffffff16600260006101000a81548173ffffffffffffffffffffffffffffffffffffffff021916908373ffffffffffffffffffffffffffffffffffffffff1602179055504260035566038d7ea4c680006004556004546005556005600655601e60075562015180600855336000806101000a81548173ffffffffffffffffffffffffffffffffffffffff021916908373ffffffffffffffffffffffffffffffffffffffff1602179055506000809054906101000a900473ffffffffffffffffffffffffffffffffffffffff1673ffffffffffffffffffffffffffffffffffffffff16600073ffffffffffffffffffffffffffffffffffffffff167f8be0079c531659141344cd1fd0a4f28419497f9722a3daafe3b4186f6b6457e060405160405180910390a36108a8806101ad6000396000f3fe6080604052600436106100865760003560e01c80637920d804116100595780637920d8041461013a5780638da5cb5b1461019f5780638f32d59b146101f6578063f2fde38b14610225578063fbf0ade11461027657610086565b8063142d00a31461008b5780632e1a7d4d1461009557806360cf0a0c146100e8578063715018a614610123575b600080fd5b6100936102b1565b005b3480156100a157600080fd5b506100ce600480360360208110156100b857600080fd5b810190808035906020019092919050505061045d565b604051808215151515815260200191505060405180910390f35b3480156100f457600080fd5b506101216004803603602081101561010b57600080fd5b81019080803590602001909291905050506104ef565b005b34801561012f57600080fd5b50610138610524565b005b34801561014657600080fd5b5061014f6105f4565b604051808473ffffffffffffffffffffffffffffffffffffffff1673ffffffffffffffffffffffffffffffffffffffff168152602001838152602001828152602001935050505060405180910390f35b3480156101ab57600080fd5b506101b4610630565b604051808273ffffffffffffffffffffffffffffffffffffffff1673ffffffffffffffffffffffffffffffffffffffff16815260200191505060405180910390f35b34801561020257600080fd5b5061020b610659565b604051808215151515815260200191505060405180910390f35b34801561023157600080fd5b506102746004803603602081101561024857600080fd5b81019080803573ffffffffffffffffffffffffffffffffffffffff1690602001909291905050506106b0565b005b34801561028257600080fd5b506102af6004803603602081101561029957600080fd5b81019080803590602001909291905050506106cd565b005b6102b96106e8565b156102c7576102c66106f9565b5b6005543410156102d657600080fd5b600060646006543402816102e657fe5b04905060008134039050600260009054906101000a900473ffffffffffffffffffffffffffffffffffffffff1673ffffffffffffffffffffffffffffffffffffffff166108fc829081150290604051600060405180830381858888f19350505050158015610358573d6000803e3d6000fd5b5033600260006101000a81548173ffffffffffffffffffffffffffffffffffffffff021916908373ffffffffffffffffffffffffffffffffffffffff16021790555042600381905550600060646007543402816103b157fe5b04340190506103bf81610770565b7f40d3bf7a102d9369093e56b1e99572a510e0ab7119220f856f4cf9b0bd2041ac600260009054906101000a900473ffffffffffffffffffffffffffffffffffffffff16600554600354604051808473ffffffffffffffffffffffffffffffffffffffff1673ffffffffffffffffffffffffffffffffffffffff168152602001838152602001828152602001935050505060405180910390a1505050565b6000610467610659565b61047057600080fd5b4782111561047d57600080fd5b600160009054906101000a900473ffffffffffffffffffffffffffffffffffffffff1673ffffffffffffffffffffffffffffffffffffffff166108fc839081150290604051600060405180830381858888f193505050501580156104e5573d6000803e3d6000fd5b5060019050919050565b6104f7610659565b61050057600080fd5b600081118015610511575060648111155b61051a57600080fd5b8060078190555050565b61052c610659565b61053557600080fd5b600073ffffffffffffffffffffffffffffffffffffffff166000809054906101000a900473ffffffffffffffffffffffffffffffffffffffff1673ffffffffffffffffffffffffffffffffffffffff167f8be0079c531659141344cd1fd0a4f28419497f9722a3daafe3b4186f6b6457e060405160405180910390a360008060006101000a81548173ffffffffffffffffffffffffffffffffffffffff021916908373ffffffffffffffffffffffffffffffffffffffff160217905550565b6000806000600260009054906101000a900473ffffffffffffffffffffffffffffffffffffffff16600554600354829250925092509250909192565b60008060009054906101000a900473ffffffffffffffffffffffffffffffffffffffff16905090565b60008060009054906101000a900473ffffffffffffffffffffffffffffffffffffffff1673ffffffffffffffffffffffffffffffffffffffff163373ffffffffffffffffffffffffffffffffffffffff1614905090565b6106b8610659565b6106c157600080fd5b6106ca8161077a565b50565b6106d5610659565b6106de57600080fd5b8060068190555050565b600042600854600354011115905090565b600160009054906101000a900473ffffffffffffffffffffffffffffffffffffffff16600260006101000a81548173ffffffffffffffffffffffffffffffffffffffff021916908373ffffffffffffffffffffffffffffffffffffffff160217905550610767600454610770565b42600381905550565b8060058190555050565b600073ffffffffffffffffffffffffffffffffffffffff168173ffffffffffffffffffffffffffffffffffffffff1614156107b457600080fd5b8073ffffffffffffffffffffffffffffffffffffffff166000809054906101000a900473ffffffffffffffffffffffffffffffffffffffff1673ffffffffffffffffffffffffffffffffffffffff167f8be0079c531659141344cd1fd0a4f28419497f9722a3daafe3b4186f6b6457e060405160405180910390a3806000806101000a81548173ffffffffffffffffffffffffffffffffffffffff021916908373ffffffffffffffffffffffffffffffffffffffff1602179055505056fea2646970667358221220e3a8835c653e0c7f879364d948391b156084d1c74150664787c2fa166b35987a64736f6c63430006000033",
  "source": "pragma solidity ^0.6.0;\n\nimport \"./Ownable.sol\";\nimport \"./Helpers.sol\";\n\ncontract KingOfTheHill is Ownable, Helpers {\n\n    event NewKing(address king, uint fee, uint sinceOf);\n\n    address payable serviceAddress = 0x42d6bC6f05F8429e585314DfD8f0BA4a7dc230DD;\n    address payable king = serviceAddress;\n    uint sinceOf = now;\n    uint startFee = 0.001 ether;\n    uint fee = startFee;\n    uint ownerFee = 5;\n    uint coef = 30;\n    uint timeLimit = 1 days;\n\n    function getKing() view external returns (address, uint, uint) {\n        return (king, fee, sinceOf);\n    }\n\n    function newKing() external payable {\n        if (_timeIsOver()) {\n            _restart();\n        }\n        require(msg.value >= fee);\n\n        uint _ownerFee = msg.value * ownerFee / 100;\n        uint reward = msg.value - _ownerFee;\n        king.transfer(reward);\n\n        king = msg.sender;\n        sinceOf = now;\n\n        uint newFee = msg.value + msg.value * coef / 100; // fee + fee * coef / 100;\n        _setFee(newFee);\n\n        emit NewKing(king, fee, sinceOf);\n    }\n\n    function _restart() private {\n        king = serviceAddress;\n        _setFee(startFee);\n        sinceOf = now;\n    }\n\n    function _timeIsOver() view private returns (bool) {\n        return (sinceOf + timeLimit) <= now;\n    }\n\n    function _setFee(uint _fee) private {\n        fee = _fee;\n    }\n\n    function setCoef(uint _coef) external onlyOwner {\n        require(_coef > 0 && _coef <= 100);\n        coef = _coef;\n    }\n\n    function setOwnerFee(uint _fee) external onlyOwner {\n        ownerFee = _fee;\n    }\n\n    function withdraw(uint amount) external onlyOwner returns(bool) {\n        require(amount <= address(this).balance);\n        serviceAddress.transfer(amount);\n        return true;\n    }\n\n}\n",
  "sourcePath": "/Users/deniskozlov/kingofthehill/contract/contracts/KingOfTheHill.sol",
  "compiler": {
    "name": "solc",
    "version": "0.6.0+commit.26b70077.Emscripten.clang"
  },
  "schemaVersion": "3.2.5",
  "updatedAt": "2020-10-05T16:12:09.749Z",
  "devdoc": {
    "methods": {
      "renounceOwnership()": {
        "details": "Allows the current owner to relinquish control of the contract."
      },
      "transferOwnership(address)": {
        "details": "Allows the current owner to transfer control of the contract to a newOwner.",
        "params": {
          "newOwner": "The address to transfer ownership to."
        }
      }
    }
  },
  "userdoc": {
    "methods": {
      "renounceOwnership()": {
        "notice": "Renouncing to ownership will leave the contract without an owner. It will not be possible to call the functions with the `onlyOwner` modifier anymore."
      }
    }
  }
}